{
  "_format": "hh-sol-artifact-1",
  "contractName": "MyNFT",
  "sourceName": "contracts/NFTCollection1.sol",
  "abi": [
    {
      "inputs": [],
      "stateMutability": "nonpayable",
      "type": "constructor"
    },
    {
      "anonymous": false,
      "inputs": [
        {
          "indexed": true,
          "internalType": "address",
          "name": "owner",
          "type": "address"
        },
        {
          "indexed": true,
          "internalType": "address",
          "name": "approved",
          "type": "address"
        },
        {
          "indexed": true,
          "internalType": "uint256",
          "name": "tokenId",
          "type": "uint256"
        }
      ],
      "name": "Approval",
      "type": "event"
    },
    {
      "anonymous": false,
      "inputs": [
        {
          "indexed": true,
          "internalType": "address",
          "name": "owner",
          "type": "address"
        },
        {
          "indexed": true,
          "internalType": "address",
          "name": "operator",
          "type": "address"
        },
        {
          "indexed": false,
          "internalType": "bool",
          "name": "approved",
          "type": "bool"
        }
      ],
      "name": "ApprovalForAll",
      "type": "event"
    },
    {
      "anonymous": false,
      "inputs": [
        {
          "indexed": true,
          "internalType": "address",
          "name": "previousOwner",
          "type": "address"
        },
        {
          "indexed": true,
          "internalType": "address",
          "name": "newOwner",
          "type": "address"
        }
      ],
      "name": "OwnershipTransferred",
      "type": "event"
    },
    {
      "anonymous": false,
      "inputs": [
        {
          "indexed": true,
          "internalType": "address",
          "name": "from",
          "type": "address"
        },
        {
          "indexed": true,
          "internalType": "address",
          "name": "to",
          "type": "address"
        },
        {
          "indexed": true,
          "internalType": "uint256",
          "name": "tokenId",
          "type": "uint256"
        }
      ],
      "name": "Transfer",
      "type": "event"
    },
    {
      "inputs": [
        {
          "internalType": "address",
          "name": "to",
          "type": "address"
        },
        {
          "internalType": "uint256",
          "name": "tokenId",
          "type": "uint256"
        }
      ],
      "name": "approve",
      "outputs": [],
      "stateMutability": "nonpayable",
      "type": "function"
    },
    {
      "inputs": [
        {
          "internalType": "address",
          "name": "owner",
          "type": "address"
        }
      ],
      "name": "balanceOf",
      "outputs": [
        {
          "internalType": "uint256",
          "name": "",
          "type": "uint256"
        }
      ],
      "stateMutability": "view",
      "type": "function"
    },
    {
      "inputs": [
        {
          "internalType": "uint256",
          "name": "tokenId",
          "type": "uint256"
        }
      ],
      "name": "getApproved",
      "outputs": [
        {
          "internalType": "address",
          "name": "",
          "type": "address"
        }
      ],
      "stateMutability": "view",
      "type": "function"
    },
    {
      "inputs": [
        {
          "internalType": "address",
          "name": "owner",
          "type": "address"
        },
        {
          "internalType": "address",
          "name": "operator",
          "type": "address"
        }
      ],
      "name": "isApprovedForAll",
      "outputs": [
        {
          "internalType": "bool",
          "name": "",
          "type": "bool"
        }
      ],
      "stateMutability": "view",
      "type": "function"
    },
    {
      "inputs": [],
      "name": "mintNFT",
      "outputs": [],
      "stateMutability": "payable",
      "type": "function"
    },
    {
      "inputs": [],
      "name": "name",
      "outputs": [
        {
          "internalType": "string",
          "name": "",
          "type": "string"
        }
      ],
      "stateMutability": "view",
      "type": "function"
    },
    {
      "inputs": [],
      "name": "owner",
      "outputs": [
        {
          "internalType": "address",
          "name": "",
          "type": "address"
        }
      ],
      "stateMutability": "view",
      "type": "function"
    },
    {
      "inputs": [
        {
          "internalType": "uint256",
          "name": "tokenId",
          "type": "uint256"
        }
      ],
      "name": "ownerOf",
      "outputs": [
        {
          "internalType": "address",
          "name": "",
          "type": "address"
        }
      ],
      "stateMutability": "view",
      "type": "function"
    },
    {
      "inputs": [],
      "name": "renounceOwnership",
      "outputs": [],
      "stateMutability": "nonpayable",
      "type": "function"
    },
    {
      "inputs": [
        {
          "internalType": "address",
          "name": "from",
          "type": "address"
        },
        {
          "internalType": "address",
          "name": "to",
          "type": "address"
        },
        {
          "internalType": "uint256",
          "name": "tokenId",
          "type": "uint256"
        }
      ],
      "name": "safeTransferFrom",
      "outputs": [],
      "stateMutability": "nonpayable",
      "type": "function"
    },
    {
      "inputs": [
        {
          "internalType": "address",
          "name": "from",
          "type": "address"
        },
        {
          "internalType": "address",
          "name": "to",
          "type": "address"
        },
        {
          "internalType": "uint256",
          "name": "tokenId",
          "type": "uint256"
        },
        {
          "internalType": "bytes",
          "name": "data",
          "type": "bytes"
        }
      ],
      "name": "safeTransferFrom",
      "outputs": [],
      "stateMutability": "nonpayable",
      "type": "function"
    },
    {
      "inputs": [
        {
          "internalType": "address",
          "name": "operator",
          "type": "address"
        },
        {
          "internalType": "bool",
          "name": "approved",
          "type": "bool"
        }
      ],
      "name": "setApprovalForAll",
      "outputs": [],
      "stateMutability": "nonpayable",
      "type": "function"
    },
    {
      "inputs": [
        {
          "internalType": "bytes4",
          "name": "interfaceId",
          "type": "bytes4"
        }
      ],
      "name": "supportsInterface",
      "outputs": [
        {
          "internalType": "bool",
          "name": "",
          "type": "bool"
        }
      ],
      "stateMutability": "view",
      "type": "function"
    },
    {
      "inputs": [],
      "name": "symbol",
      "outputs": [
        {
          "internalType": "string",
          "name": "",
          "type": "string"
        }
      ],
      "stateMutability": "view",
      "type": "function"
    },
    {
      "inputs": [],
      "name": "tokenSupply",
      "outputs": [
        {
          "internalType": "uint256",
          "name": "",
          "type": "uint256"
        }
      ],
      "stateMutability": "view",
      "type": "function"
    },
    {
      "inputs": [
        {
          "internalType": "uint256",
          "name": "tokenId",
          "type": "uint256"
        }
      ],
      "name": "tokenURI",
      "outputs": [
        {
          "internalType": "string",
          "name": "",
          "type": "string"
        }
      ],
      "stateMutability": "view",
      "type": "function"
    },
    {
      "inputs": [
        {
          "internalType": "address",
          "name": "from",
          "type": "address"
        },
        {
          "internalType": "address",
          "name": "to",
          "type": "address"
        },
        {
          "internalType": "uint256",
          "name": "tokenId",
          "type": "uint256"
        }
      ],
      "name": "transferFrom",
      "outputs": [],
      "stateMutability": "nonpayable",
      "type": "function"
    },
    {
      "inputs": [
        {
          "internalType": "address",
          "name": "newOwner",
          "type": "address"
        }
      ],
      "name": "transferOwnership",
      "outputs": [],
      "stateMutability": "nonpayable",
      "type": "function"
    },
    {
      "inputs": [],
      "name": "viewBalance",
      "outputs": [
        {
          "internalType": "uint256",
          "name": "",
          "type": "uint256"
        }
      ],
      "stateMutability": "view",
      "type": "function"
    },
    {
      "inputs": [],
      "name": "withdraw",
      "outputs": [],
      "stateMutability": "nonpayable",
      "type": "function"
    }
  ],
  "bytecode": "0x608060405260006007553480156200001657600080fd5b506040518060400160405280600581526020017f4d794e46540000000000000000000000000000000000000000000000000000008152506040518060400160405280600381526020017f4e46540000000000000000000000000000000000000000000000000000000000815250816000908162000094919062000417565b508060019081620000a6919062000417565b505050620000c9620000bd620000cf60201b60201c565b620000d760201b60201c565b620004fe565b600033905090565b6000600660009054906101000a900473ffffffffffffffffffffffffffffffffffffffff16905081600660006101000a81548173ffffffffffffffffffffffffffffffffffffffff021916908373ffffffffffffffffffffffffffffffffffffffff1602179055508173ffffffffffffffffffffffffffffffffffffffff168173ffffffffffffffffffffffffffffffffffffffff167f8be0079c531659141344cd1fd0a4f28419497f9722a3daafe3b4186f6b6457e060405160405180910390a35050565b600081519050919050565b7f4e487b7100000000000000000000000000000000000000000000000000000000600052604160045260246000fd5b7f4e487b7100000000000000000000000000000000000000000000000000000000600052602260045260246000fd5b600060028204905060018216806200021f57607f821691505b602082108103620002355762000234620001d7565b5b50919050565b60008190508160005260206000209050919050565b60006020601f8301049050919050565b600082821b905092915050565b6000600883026200029f7fffffffffffffffffffffffffffffffffffffffffffffffffffffffffffffffff8262000260565b620002ab868362000260565b95508019841693508086168417925050509392505050565b6000819050919050565b6000819050919050565b6000620002f8620002f2620002ec84620002c3565b620002cd565b620002c3565b9050919050565b6000819050919050565b6200031483620002d7565b6200032c6200032382620002ff565b8484546200026d565b825550505050565b600090565b6200034362000334565b6200035081848462000309565b505050565b5b8181101562000378576200036c60008262000339565b60018101905062000356565b5050565b601f821115620003c75762000391816200023b565b6200039c8462000250565b81016020851015620003ac578190505b620003c4620003bb8562000250565b83018262000355565b50505b505050565b600082821c905092915050565b6000620003ec60001984600802620003cc565b1980831691505092915050565b6000620004078383620003d9565b9150826002028217905092915050565b62000422826200019d565b67ffffffffffffffff8111156200043e576200043d620001a8565b5b6200044a825462000206565b620004578282856200037c565b600060209050601f8311600181146200048f57600084156200047a578287015190505b620004868582620003f9565b865550620004f6565b601f1984166200049f866200023b565b60005b82811015620004c957848901518255600182019150602085019450602081019050620004a2565b86831015620004e95784890151620004e5601f891682620003d9565b8355505b6001600288020188555050505b505050505050565b612a8b806200050e6000396000f3fe60806040526004361061011f5760003560e01c806370a08231116100a0578063a22cb46511610064578063a22cb465146103a2578063b88d4fde146103cb578063c87b56dd146103f4578063e985e9c514610431578063f2fde38b1461046e5761011f565b806370a08231146102cd578063715018a61461030a5780637824407f146103215780638da5cb5b1461034c57806395d89b41146103775761011f565b806323b872dd116100e757806323b872dd146101fc5780633ccfd60b146102255780633ff1e05b1461023c57806342842e0e146102675780636352211e146102905761011f565b806301ffc9a71461012457806306fdde0314610161578063081812fc1461018c578063095ea7b3146101c957806314f710fe146101f2575b600080fd5b34801561013057600080fd5b5061014b60048036038101906101469190611b85565b610497565b6040516101589190611bcd565b60405180910390f35b34801561016d57600080fd5b50610176610579565b6040516101839190611c78565b60405180910390f35b34801561019857600080fd5b506101b360048036038101906101ae9190611cd0565b61060b565b6040516101c09190611d3e565b60405180910390f35b3480156101d557600080fd5b506101f060048036038101906101eb9190611d85565b610651565b005b6101fa610768565b005b34801561020857600080fd5b50610223600480360381019061021e9190611dc5565b61078e565b005b34801561023157600080fd5b5061023a6107ee565b005b34801561024857600080fd5b5061025161083f565b60405161025e9190611e27565b60405180910390f35b34801561027357600080fd5b5061028e60048036038101906102899190611dc5565b610847565b005b34801561029c57600080fd5b506102b760048036038101906102b29190611cd0565b610867565b6040516102c49190611d3e565b60405180910390f35b3480156102d957600080fd5b506102f460048036038101906102ef9190611e42565b6108ed565b6040516103019190611e27565b60405180910390f35b34801561031657600080fd5b5061031f6109a4565b005b34801561032d57600080fd5b506103366109b8565b6040516103439190611e27565b60405180910390f35b34801561035857600080fd5b506103616109be565b60405161036e9190611d3e565b60405180910390f35b34801561038357600080fd5b5061038c6109e8565b6040516103999190611c78565b60405180910390f35b3480156103ae57600080fd5b506103c960048036038101906103c49190611e9b565b610a7a565b005b3480156103d757600080fd5b506103f260048036038101906103ed9190612010565b610a90565b005b34801561040057600080fd5b5061041b60048036038101906104169190611cd0565b610af2565b6040516104289190611c78565b60405180910390f35b34801561043d57600080fd5b5061045860048036038101906104539190612093565b610b60565b6040516104659190611bcd565b60405180910390f35b34801561047a57600080fd5b5061049560048036038101906104909190611e42565b610bf4565b005b60007f80ac58cd000000000000000000000000000000000000000000000000000000007bffffffffffffffffffffffffffffffffffffffffffffffffffffffff1916827bffffffffffffffffffffffffffffffffffffffffffffffffffffffff1916148061056257507f5b5e139f000000000000000000000000000000000000000000000000000000007bffffffffffffffffffffffffffffffffffffffffffffffffffffffff1916827bffffffffffffffffffffffffffffffffffffffffffffffffffffffff1916145b80610572575061057182610c77565b5b9050919050565b60606000805461058890612102565b80601f01602080910402602001604051908101604052809291908181526020018280546105b490612102565b80156106015780601f106105d657610100808354040283529160200191610601565b820191906000526020600020905b8154815290600101906020018083116105e457829003601f168201915b5050505050905090565b600061061682610ce1565b6004600083815260200190815260200160002060009054906101000a900473ffffffffffffffffffffffffffffffffffffffff169050919050565b600061065c82610867565b90508073ffffffffffffffffffffffffffffffffffffffff168373ffffffffffffffffffffffffffffffffffffffff16036106cc576040517f08c379a00000000000000000000000000000000000000000000000000000000081526004016106c3906121a5565b60405180910390fd5b8073ffffffffffffffffffffffffffffffffffffffff166106eb610d2c565b73ffffffffffffffffffffffffffffffffffffffff16148061071a575061071981610714610d2c565b610b60565b5b610759576040517f08c379a000000000000000000000000000000000000000000000000000000000815260040161075090612237565b60405180910390fd5b6107638383610d34565b505050565b6007600081548092919061077b90612286565b919050555061078c33600754610ded565b565b61079f610799610d2c565b8261100a565b6107de576040517f08c379a00000000000000000000000000000000000000000000000000000000081526004016107d590612340565b60405180910390fd5b6107e983838361109f565b505050565b6107f6611398565b3373ffffffffffffffffffffffffffffffffffffffff166108fc479081150290604051600060405180830381858888f1935050505015801561083c573d6000803e3d6000fd5b50565b600047905090565b61086283838360405180602001604052806000815250610a90565b505050565b60008061087383611416565b9050600073ffffffffffffffffffffffffffffffffffffffff168173ffffffffffffffffffffffffffffffffffffffff16036108e4576040517f08c379a00000000000000000000000000000000000000000000000000000000081526004016108db906123ac565b60405180910390fd5b80915050919050565b60008073ffffffffffffffffffffffffffffffffffffffff168273ffffffffffffffffffffffffffffffffffffffff160361095d576040517f08c379a00000000000000000000000000000000000000000000000000000000081526004016109549061243e565b60405180910390fd5b600360008373ffffffffffffffffffffffffffffffffffffffff1673ffffffffffffffffffffffffffffffffffffffff168152602001908152602001600020549050919050565b6109ac611398565b6109b66000611453565b565b60075481565b6000600660009054906101000a900473ffffffffffffffffffffffffffffffffffffffff16905090565b6060600180546109f790612102565b80601f0160208091040260200160405190810160405280929190818152602001828054610a2390612102565b8015610a705780601f10610a4557610100808354040283529160200191610a70565b820191906000526020600020905b815481529060010190602001808311610a5357829003601f168201915b5050505050905090565b610a8c610a85610d2c565b8383611519565b5050565b610aa1610a9b610d2c565b8361100a565b610ae0576040517f08c379a0000000000000000000000000000000000000000000000000000000008152600401610ad790612340565b60405180910390fd5b610aec84848484611685565b50505050565b6060610afd82610ce1565b6000610b076116e1565b90506000610b1484611701565b90506000825111610b345760405180602001604052806000815250610b57565b8181604051602001610b479291906124e6565b6040516020818303038152906040525b92505050919050565b6000600560008473ffffffffffffffffffffffffffffffffffffffff1673ffffffffffffffffffffffffffffffffffffffff16815260200190815260200160002060008373ffffffffffffffffffffffffffffffffffffffff1673ffffffffffffffffffffffffffffffffffffffff16815260200190815260200160002060009054906101000a900460ff16905092915050565b610bfc611398565b600073ffffffffffffffffffffffffffffffffffffffff168173ffffffffffffffffffffffffffffffffffffffff1603610c6b576040517f08c379a0000000000000000000000000000000000000000000000000000000008152600401610c6290612587565b60405180910390fd5b610c7481611453565b50565b60007f01ffc9a7000000000000000000000000000000000000000000000000000000007bffffffffffffffffffffffffffffffffffffffffffffffffffffffff1916827bffffffffffffffffffffffffffffffffffffffffffffffffffffffff1916149050919050565b610cea816117cf565b610d29576040517f08c379a0000000000000000000000000000000000000000000000000000000008152600401610d20906123ac565b60405180910390fd5b50565b600033905090565b816004600083815260200190815260200160002060006101000a81548173ffffffffffffffffffffffffffffffffffffffff021916908373ffffffffffffffffffffffffffffffffffffffff160217905550808273ffffffffffffffffffffffffffffffffffffffff16610da783610867565b73ffffffffffffffffffffffffffffffffffffffff167f8c5be1e5ebec7d5bd14f71427d1e84f3dd0314c0f7b2291e5b200ac8c7c3b92560405160405180910390a45050565b600073ffffffffffffffffffffffffffffffffffffffff168273ffffffffffffffffffffffffffffffffffffffff1603610e5c576040517f08c379a0000000000000000000000000000000000000000000000000000000008152600401610e53906125f3565b60405180910390fd5b610e65816117cf565b15610ea5576040517f08c379a0000000000000000000000000000000000000000000000000000000008152600401610e9c9061265f565b60405180910390fd5b610eb3600083836001611810565b610ebc816117cf565b15610efc576040517f08c379a0000000000000000000000000000000000000000000000000000000008152600401610ef39061265f565b60405180910390fd5b6001600360008473ffffffffffffffffffffffffffffffffffffffff1673ffffffffffffffffffffffffffffffffffffffff16815260200190815260200160002060008282540192505081905550816002600083815260200190815260200160002060006101000a81548173ffffffffffffffffffffffffffffffffffffffff021916908373ffffffffffffffffffffffffffffffffffffffff160217905550808273ffffffffffffffffffffffffffffffffffffffff16600073ffffffffffffffffffffffffffffffffffffffff167fddf252ad1be2c89b69c2b068fc378daa952ba7f163c4a11628f55a4df523b3ef60405160405180910390a4611006600083836001611816565b5050565b60008061101683610867565b90508073ffffffffffffffffffffffffffffffffffffffff168473ffffffffffffffffffffffffffffffffffffffff16148061105857506110578185610b60565b5b8061109657508373ffffffffffffffffffffffffffffffffffffffff1661107e8461060b565b73ffffffffffffffffffffffffffffffffffffffff16145b91505092915050565b8273ffffffffffffffffffffffffffffffffffffffff166110bf82610867565b73ffffffffffffffffffffffffffffffffffffffff1614611115576040517f08c379a000000000000000000000000000000000000000000000000000000000815260040161110c906126f1565b60405180910390fd5b600073ffffffffffffffffffffffffffffffffffffffff168273ffffffffffffffffffffffffffffffffffffffff1603611184576040517f08c379a000000000000000000000000000000000000000000000000000000000815260040161117b90612783565b60405180910390fd5b6111918383836001611810565b8273ffffffffffffffffffffffffffffffffffffffff166111b182610867565b73ffffffffffffffffffffffffffffffffffffffff1614611207576040517f08c379a00000000000000000000000000000000000000000000000000000000081526004016111fe906126f1565b60405180910390fd5b6004600082815260200190815260200160002060006101000a81549073ffffffffffffffffffffffffffffffffffffffff02191690556001600360008573ffffffffffffffffffffffffffffffffffffffff1673ffffffffffffffffffffffffffffffffffffffff168152602001908152602001600020600082825403925050819055506001600360008473ffffffffffffffffffffffffffffffffffffffff1673ffffffffffffffffffffffffffffffffffffffff16815260200190815260200160002060008282540192505081905550816002600083815260200190815260200160002060006101000a81548173ffffffffffffffffffffffffffffffffffffffff021916908373ffffffffffffffffffffffffffffffffffffffff160217905550808273ffffffffffffffffffffffffffffffffffffffff168473ffffffffffffffffffffffffffffffffffffffff167fddf252ad1be2c89b69c2b068fc378daa952ba7f163c4a11628f55a4df523b3ef60405160405180910390a46113938383836001611816565b505050565b6113a0610d2c565b73ffffffffffffffffffffffffffffffffffffffff166113be6109be565b73ffffffffffffffffffffffffffffffffffffffff1614611414576040517f08c379a000000000000000000000000000000000000000000000000000000000815260040161140b906127ef565b60405180910390fd5b565b60006002600083815260200190815260200160002060009054906101000a900473ffffffffffffffffffffffffffffffffffffffff169050919050565b6000600660009054906101000a900473ffffffffffffffffffffffffffffffffffffffff16905081600660006101000a81548173ffffffffffffffffffffffffffffffffffffffff021916908373ffffffffffffffffffffffffffffffffffffffff1602179055508173ffffffffffffffffffffffffffffffffffffffff168173ffffffffffffffffffffffffffffffffffffffff167f8be0079c531659141344cd1fd0a4f28419497f9722a3daafe3b4186f6b6457e060405160405180910390a35050565b8173ffffffffffffffffffffffffffffffffffffffff168373ffffffffffffffffffffffffffffffffffffffff1603611587576040517f08c379a000000000000000000000000000000000000000000000000000000000815260040161157e9061285b565b60405180910390fd5b80600560008573ffffffffffffffffffffffffffffffffffffffff1673ffffffffffffffffffffffffffffffffffffffff16815260200190815260200160002060008473ffffffffffffffffffffffffffffffffffffffff1673ffffffffffffffffffffffffffffffffffffffff16815260200190815260200160002060006101000a81548160ff0219169083151502179055508173ffffffffffffffffffffffffffffffffffffffff168373ffffffffffffffffffffffffffffffffffffffff167f17307eab39ab6107e8899845ad3d59bd9653f200f220920489ca2b5937696c31836040516116789190611bcd565b60405180910390a3505050565b61169084848461109f565b61169c8484848461181c565b6116db576040517f08c379a00000000000000000000000000000000000000000000000000000000081526004016116d2906128ed565b60405180910390fd5b50505050565b6060604051806060016040528060368152602001612a2060369139905090565b606060006001611710846119a3565b01905060008167ffffffffffffffff81111561172f5761172e611ee5565b5b6040519080825280601f01601f1916602001820160405280156117615781602001600182028036833780820191505090505b509050600082602001820190505b6001156117c4578080600190039150507f3031323334353637383961626364656600000000000000000000000000000000600a86061a8153600a85816117b8576117b761290d565b5b0494506000850361176f575b819350505050919050565b60008073ffffffffffffffffffffffffffffffffffffffff166117f183611416565b73ffffffffffffffffffffffffffffffffffffffff1614159050919050565b50505050565b50505050565b600061183d8473ffffffffffffffffffffffffffffffffffffffff16611af6565b15611996578373ffffffffffffffffffffffffffffffffffffffff1663150b7a02611866610d2c565b8786866040518563ffffffff1660e01b81526004016118889493929190612991565b6020604051808303816000875af19250505080156118c457506040513d601f19601f820116820180604052508101906118c191906129f2565b60015b611946573d80600081146118f4576040519150601f19603f3d011682016040523d82523d6000602084013e6118f9565b606091505b50600081510361193e576040517f08c379a0000000000000000000000000000000000000000000000000000000008152600401611935906128ed565b60405180910390fd5b805181602001fd5b63150b7a0260e01b7bffffffffffffffffffffffffffffffffffffffffffffffffffffffff1916817bffffffffffffffffffffffffffffffffffffffffffffffffffffffff19161491505061199b565b600190505b949350505050565b600080600090507a184f03e93ff9f4daa797ed6e38ed64bf6a1f0100000000000000008310611a01577a184f03e93ff9f4daa797ed6e38ed64bf6a1f01000000000000000083816119f7576119f661290d565b5b0492506040810190505b6d04ee2d6d415b85acef81000000008310611a3e576d04ee2d6d415b85acef81000000008381611a3457611a3361290d565b5b0492506020810190505b662386f26fc100008310611a6d57662386f26fc100008381611a6357611a6261290d565b5b0492506010810190505b6305f5e1008310611a96576305f5e1008381611a8c57611a8b61290d565b5b0492506008810190505b6127108310611abb576127108381611ab157611ab061290d565b5b0492506004810190505b60648310611ade5760648381611ad457611ad361290d565b5b0492506002810190505b600a8310611aed576001810190505b80915050919050565b6000808273ffffffffffffffffffffffffffffffffffffffff163b119050919050565b6000604051905090565b600080fd5b600080fd5b60007fffffffff0000000000000000000000000000000000000000000000000000000082169050919050565b611b6281611b2d565b8114611b6d57600080fd5b50565b600081359050611b7f81611b59565b92915050565b600060208284031215611b9b57611b9a611b23565b5b6000611ba984828501611b70565b91505092915050565b60008115159050919050565b611bc781611bb2565b82525050565b6000602082019050611be26000830184611bbe565b92915050565b600081519050919050565b600082825260208201905092915050565b60005b83811015611c22578082015181840152602081019050611c07565b60008484015250505050565b6000601f19601f8301169050919050565b6000611c4a82611be8565b611c548185611bf3565b9350611c64818560208601611c04565b611c6d81611c2e565b840191505092915050565b60006020820190508181036000830152611c928184611c3f565b905092915050565b6000819050919050565b611cad81611c9a565b8114611cb857600080fd5b50565b600081359050611cca81611ca4565b92915050565b600060208284031215611ce657611ce5611b23565b5b6000611cf484828501611cbb565b91505092915050565b600073ffffffffffffffffffffffffffffffffffffffff82169050919050565b6000611d2882611cfd565b9050919050565b611d3881611d1d565b82525050565b6000602082019050611d536000830184611d2f565b92915050565b611d6281611d1d565b8114611d6d57600080fd5b50565b600081359050611d7f81611d59565b92915050565b60008060408385031215611d9c57611d9b611b23565b5b6000611daa85828601611d70565b9250506020611dbb85828601611cbb565b9150509250929050565b600080600060608486031215611dde57611ddd611b23565b5b6000611dec86828701611d70565b9350506020611dfd86828701611d70565b9250506040611e0e86828701611cbb565b9150509250925092565b611e2181611c9a565b82525050565b6000602082019050611e3c6000830184611e18565b92915050565b600060208284031215611e5857611e57611b23565b5b6000611e6684828501611d70565b91505092915050565b611e7881611bb2565b8114611e8357600080fd5b50565b600081359050611e9581611e6f565b92915050565b60008060408385031215611eb257611eb1611b23565b5b6000611ec085828601611d70565b9250506020611ed185828601611e86565b9150509250929050565b600080fd5b600080fd5b7f4e487b7100000000000000000000000000000000000000000000000000000000600052604160045260246000fd5b611f1d82611c2e565b810181811067ffffffffffffffff82111715611f3c57611f3b611ee5565b5b80604052505050565b6000611f4f611b19565b9050611f5b8282611f14565b919050565b600067ffffffffffffffff821115611f7b57611f7a611ee5565b5b611f8482611c2e565b9050602081019050919050565b82818337600083830152505050565b6000611fb3611fae84611f60565b611f45565b905082815260208101848484011115611fcf57611fce611ee0565b5b611fda848285611f91565b509392505050565b600082601f830112611ff757611ff6611edb565b5b8135612007848260208601611fa0565b91505092915050565b6000806000806080858703121561202a57612029611b23565b5b600061203887828801611d70565b945050602061204987828801611d70565b935050604061205a87828801611cbb565b925050606085013567ffffffffffffffff81111561207b5761207a611b28565b5b61208787828801611fe2565b91505092959194509250565b600080604083850312156120aa576120a9611b23565b5b60006120b885828601611d70565b92505060206120c985828601611d70565b9150509250929050565b7f4e487b7100000000000000000000000000000000000000000000000000000000600052602260045260246000fd5b6000600282049050600182168061211a57607f821691505b60208210810361212d5761212c6120d3565b5b50919050565b7f4552433732313a20617070726f76616c20746f2063757272656e74206f776e6560008201527f7200000000000000000000000000000000000000000000000000000000000000602082015250565b600061218f602183611bf3565b915061219a82612133565b604082019050919050565b600060208201905081810360008301526121be81612182565b9050919050565b7f4552433732313a20617070726f76652063616c6c6572206973206e6f7420746f60008201527f6b656e206f776e6572206f7220617070726f76656420666f7220616c6c000000602082015250565b6000612221603d83611bf3565b915061222c826121c5565b604082019050919050565b6000602082019050818103600083015261225081612214565b9050919050565b7f4e487b7100000000000000000000000000000000000000000000000000000000600052601160045260246000fd5b600061229182611c9a565b91507fffffffffffffffffffffffffffffffffffffffffffffffffffffffffffffffff82036122c3576122c2612257565b5b600182019050919050565b7f4552433732313a2063616c6c6572206973206e6f7420746f6b656e206f776e6560008201527f72206f7220617070726f76656400000000000000000000000000000000000000602082015250565b600061232a602d83611bf3565b9150612335826122ce565b604082019050919050565b600060208201905081810360008301526123598161231d565b9050919050565b7f4552433732313a20696e76616c696420746f6b656e2049440000000000000000600082015250565b6000612396601883611bf3565b91506123a182612360565b602082019050919050565b600060208201905081810360008301526123c581612389565b9050919050565b7f4552433732313a2061646472657373207a65726f206973206e6f74206120766160008201527f6c6964206f776e65720000000000000000000000000000000000000000000000602082015250565b6000612428602983611bf3565b9150612433826123cc565b604082019050919050565b600060208201905081810360008301526124578161241b565b9050919050565b600081905092915050565b600061247482611be8565b61247e818561245e565b935061248e818560208601611c04565b80840191505092915050565b7f2e6a736f6e000000000000000000000000000000000000000000000000000000600082015250565b60006124d060058361245e565b91506124db8261249a565b600582019050919050565b60006124f28285612469565b91506124fe8284612469565b9150612509826124c3565b91508190509392505050565b7f4f776e61626c653a206e6577206f776e657220697320746865207a65726f206160008201527f6464726573730000000000000000000000000000000000000000000000000000602082015250565b6000612571602683611bf3565b915061257c82612515565b604082019050919050565b600060208201905081810360008301526125a081612564565b9050919050565b7f4552433732313a206d696e7420746f20746865207a65726f2061646472657373600082015250565b60006125dd602083611bf3565b91506125e8826125a7565b602082019050919050565b6000602082019050818103600083015261260c816125d0565b9050919050565b7f4552433732313a20746f6b656e20616c7265616479206d696e74656400000000600082015250565b6000612649601c83611bf3565b915061265482612613565b602082019050919050565b600060208201905081810360008301526126788161263c565b9050919050565b7f4552433732313a207472616e736665722066726f6d20696e636f72726563742060008201527f6f776e6572000000000000000000000000000000000000000000000000000000602082015250565b60006126db602583611bf3565b91506126e68261267f565b604082019050919050565b6000602082019050818103600083015261270a816126ce565b9050919050565b7f4552433732313a207472616e7366657220746f20746865207a65726f2061646460008201527f7265737300000000000000000000000000000000000000000000000000000000602082015250565b600061276d602483611bf3565b915061277882612711565b604082019050919050565b6000602082019050818103600083015261279c81612760565b9050919050565b7f4f776e61626c653a2063616c6c6572206973206e6f7420746865206f776e6572600082015250565b60006127d9602083611bf3565b91506127e4826127a3565b602082019050919050565b60006020820190508181036000830152612808816127cc565b9050919050565b7f4552433732313a20617070726f766520746f2063616c6c657200000000000000600082015250565b6000612845601983611bf3565b91506128508261280f565b602082019050919050565b6000602082019050818103600083015261287481612838565b9050919050565b7f4552433732313a207472616e7366657220746f206e6f6e20455243373231526560008201527f63656976657220696d706c656d656e7465720000000000000000000000000000602082015250565b60006128d7603283611bf3565b91506128e28261287b565b604082019050919050565b60006020820190508181036000830152612906816128ca565b9050919050565b7f4e487b7100000000000000000000000000000000000000000000000000000000600052601260045260246000fd5b600081519050919050565b600082825260208201905092915050565b60006129638261293c565b61296d8185612947565b935061297d818560208601611c04565b61298681611c2e565b840191505092915050565b60006080820190506129a66000830187611d2f565b6129b36020830186611d2f565b6129c06040830185611e18565b81810360608301526129d28184612958565b905095945050505050565b6000815190506129ec81611b59565b92915050565b600060208284031215612a0857612a07611b23565b5b6000612a16848285016129dd565b9150509291505056fe697066733a2f2f516d5344514e7733626751555a72666e775676525542736d7763766e47486f37746d354e3552575733624a4457592fa2646970667358221220054c1a30f8f7b9814b267307ba26ba8b0bc4914fc3621fa214e2455c7b6ff03564736f6c63430008130033",
  "linkReferences": {},
  "deployedLinkReferences": {}
}